{
  "contractName": "Adoption",
  "abi": [
    {
      "constant": true,
      "inputs": [],
      "name": "add1",
      "outputs": [
        {
          "name": "",
          "type": "address"
        }
      ],
      "payable": false,
      "stateMutability": "view",
      "type": "function"
    },
    {
      "constant": true,
      "inputs": [
        {
          "name": "",
          "type": "address"
        }
      ],
      "name": "balances",
      "outputs": [
        {
          "name": "",
          "type": "uint256"
        }
      ],
      "payable": false,
      "stateMutability": "view",
      "type": "function"
    },
    {
      "constant": true,
      "inputs": [
        {
          "name": "",
          "type": "uint256"
        }
      ],
      "name": "adopters",
      "outputs": [
        {
          "name": "",
          "type": "address"
        }
      ],
      "payable": false,
      "stateMutability": "view",
      "type": "function"
    },
    {
      "anonymous": false,
      "inputs": [
        {
          "indexed": true,
          "name": "from",
          "type": "address"
        },
        {
          "indexed": true,
          "name": "to",
          "type": "address"
        },
        {
          "indexed": false,
          "name": "amount",
          "type": "uint256"
        }
      ],
      "name": "Sent",
      "type": "event"
    },
    {
      "constant": false,
      "inputs": [
        {
          "name": "available_balance",
          "type": "uint256"
        },
        {
          "name": "sender",
          "type": "address"
        },
        {
          "name": "receiver",
          "type": "address"
        },
        {
          "name": "amount",
          "type": "uint256"
        }
      ],
      "name": "adopt",
      "outputs": [
        {
          "name": "",
          "type": "uint256"
        }
      ],
      "payable": true,
      "stateMutability": "payable",
      "type": "function"
    },
    {
      "constant": true,
      "inputs": [],
      "name": "getAdopters",
      "outputs": [
        {
          "name": "",
          "type": "address[16]"
        }
      ],
      "payable": false,
      "stateMutability": "view",
      "type": "function"
    }
  ],
  "bytecode": "0x6060604052341561000f57600080fd5b61052e8061001e6000396000f30060606040526004361061006c576000357c0100000000000000000000000000000000000000000000000000000000900463ffffffff16806235921a1461007157806327e235e3146100c65780633de4eb171461011357806343ae80d314610164578063e8e87914146101c7575b600080fd5b341561007c57600080fd5b61008461023a565b604051808273ffffffffffffffffffffffffffffffffffffffff1673ffffffffffffffffffffffffffffffffffffffff16815260200191505060405180910390f35b34156100d157600080fd5b6100fd600480803573ffffffffffffffffffffffffffffffffffffffff16906020019091905050610260565b6040518082815260200191505060405180910390f35b341561011e57600080fd5b610126610278565b6040518082601060200280838360005b83811015610151578082015181840152602081019050610136565b5050505090500191505060405180910390f35b341561016f57600080fd5b61018560048080359060200190919050506102f9565b604051808273ffffffffffffffffffffffffffffffffffffffff1673ffffffffffffffffffffffffffffffffffffffff16815260200191505060405180910390f35b610224600480803590602001909190803573ffffffffffffffffffffffffffffffffffffffff1690602001909190803573ffffffffffffffffffffffffffffffffffffffff1690602001909190803590602001909190505061032e565b6040518082815260200191505060405180910390f35b601060009054906101000a900473ffffffffffffffffffffffffffffffffffffffff1681565b60116020528060005260406000206000915090505481565b6102806104c3565b60006010806020026040519081016040528092919082601080156102ef576020028201915b8160009054906101000a900473ffffffffffffffffffffffffffffffffffffffff1673ffffffffffffffffffffffffffffffffffffffff16815260200190600101908083116102a5575b5050505050905090565b60008160108110151561030857fe5b016000915054906101000a900473ffffffffffffffffffffffffffffffffffffffff1681565b60006102d48281151561033d57fe5b049150818503945084601160008673ffffffffffffffffffffffffffffffffffffffff1673ffffffffffffffffffffffffffffffffffffffff168152602001908152602001600020819055508373ffffffffffffffffffffffffffffffffffffffff166108fc670de0b6b3a76400009081150290604051600060405180830381858888f193505050505081601160008573ffffffffffffffffffffffffffffffffffffffff1673ffffffffffffffffffffffffffffffffffffffff168152602001908152602001600020600082825401925050819055508273ffffffffffffffffffffffffffffffffffffffff168473ffffffffffffffffffffffffffffffffffffffff167f3990db2d31862302a685e8086b5755072a6e2b5b780af1ee81ece35ee3cd3345846040518082815260200191505060405180910390a3601160008573ffffffffffffffffffffffffffffffffffffffff1673ffffffffffffffffffffffffffffffffffffffff168152602001908152602001600020549050949350505050565b610200604051908101604052806010905b600073ffffffffffffffffffffffffffffffffffffffff168152602001906001900390816104d457905050905600a165627a7a72305820b9069d985a934241879d5d90066914bf68d03c321c189c51e2e20d203344ed270029",
  "source": "pragma solidity ^0.4.17;\n\n//import \"./ConvertLib.sol\";\n\ncontract Adoption {\n  //uint256 constant private MAX_UNIT256 = 2*256 -1;\n  address[16] public adopters;\n   address public add1;\n mapping (address => uint256) public balances;\n\n//ufixed128x18 conversion_Rate = 0.0013;\n\n  event Sent(address indexed from, address indexed to, uint amount);\n\nfunction adopt(uint available_balance ,address sender, address receiver, uint amount) payable returns(uint)  {\n    amount =  amount / uint(724);\n    available_balance -= amount;\n    balances[sender] = available_balance;\n//   receiver.send(available_balance);\n//      add1 = 0x40d678352550d89c9996a6553f458374613f6525;\n  //transfer(sender,10 ether);\nsender.send(1 ether);\n    balances[receiver] += amount;\n   Sent(sender ,receiver, amount);\n   return(balances[sender]);\n}\n//\n\n\n   // Retrieving the therapist\n   function getAdopters() public view returns (address[16]) {\n     return adopters;\n   }\n\n }\n",
  "sourcePath": "/Users/swapnasangayya/Desktop/file/therapist referral/contracts/Adoption.sol",
  "compiler": {
    "name": "solc",
    "version": "0.4.19+commit.c4cbbb05.Emscripten.clang"
  },
  "schemaVersion": "2.0.0",
  "updatedAt": "2018-04-22T17:32:01.737Z"
}