{
  "contractName": "Mortgage",
  "abi": [
    {
      "constant": true,
      "inputs": [
        {
          "name": "",
          "type": "address"
        }
      ],
      "name": "balances",
      "outputs": [
        {
          "name": "",
          "type": "uint256"
        }
      ],
      "payable": false,
      "stateMutability": "view",
      "type": "function"
    },
    {
      "inputs": [],
      "payable": false,
      "stateMutability": "nonpayable",
      "type": "constructor"
    },
    {
      "anonymous": false,
      "inputs": [
        {
          "indexed": false,
          "name": "_owner",
          "type": "address"
        }
      ],
      "name": "LienReleased",
      "type": "event"
    },
    {
      "anonymous": false,
      "inputs": [
        {
          "indexed": false,
          "name": "_owner",
          "type": "address"
        }
      ],
      "name": "LienTrasferred",
      "type": "event"
    },
    {
      "anonymous": false,
      "inputs": [
        {
          "indexed": false,
          "name": "_status",
          "type": "int256"
        }
      ],
      "name": "LoanStatus",
      "type": "event"
    },
    {
      "constant": false,
      "inputs": [
        {
          "name": "receiver",
          "type": "address"
        },
        {
          "name": "amount",
          "type": "uint256"
        }
      ],
      "name": "deposit",
      "outputs": [
        {
          "name": "",
          "type": "uint256"
        }
      ],
      "payable": false,
      "stateMutability": "nonpayable",
      "type": "function"
    },
    {
      "constant": true,
      "inputs": [
        {
          "name": "receiver",
          "type": "address"
        }
      ],
      "name": "getBalance",
      "outputs": [
        {
          "name": "",
          "type": "uint256"
        }
      ],
      "payable": false,
      "stateMutability": "view",
      "type": "function"
    },
    {
      "constant": false,
      "inputs": [],
      "name": "checkMortgagePayoff",
      "outputs": [],
      "payable": false,
      "stateMutability": "nonpayable",
      "type": "function"
    },
    {
      "constant": false,
      "inputs": [
        {
          "name": "_addressOfProperty",
          "type": "bytes32"
        },
        {
          "name": "_purchasePrice",
          "type": "uint32"
        },
        {
          "name": "_term",
          "type": "uint32"
        },
        {
          "name": "_interest",
          "type": "uint32"
        },
        {
          "name": "_loanAmount",
          "type": "uint32"
        },
        {
          "name": "_annualTax",
          "type": "uint32"
        },
        {
          "name": "_annualInsurance",
          "type": "uint32"
        },
        {
          "name": "_monthlyPi",
          "type": "uint32"
        },
        {
          "name": "_monthlyTax",
          "type": "uint32"
        },
        {
          "name": "_monthlyInsurance",
          "type": "uint32"
        },
        {
          "name": "_mortgageHolder",
          "type": "address"
        },
        {
          "name": "_insurer",
          "type": "address"
        },
        {
          "name": "_irs",
          "type": "address"
        }
      ],
      "name": "submitLoan",
      "outputs": [],
      "payable": false,
      "stateMutability": "nonpayable",
      "type": "function"
    },
    {
      "constant": true,
      "inputs": [],
      "name": "getLoanData",
      "outputs": [
        {
          "name": "_addressOfProperty",
          "type": "bytes32"
        },
        {
          "name": "_purchasePrice",
          "type": "uint32"
        },
        {
          "name": "_term",
          "type": "uint32"
        },
        {
          "name": "_interest",
          "type": "uint32"
        },
        {
          "name": "_loanAmount",
          "type": "uint32"
        },
        {
          "name": "_annualTax",
          "type": "uint32"
        },
        {
          "name": "_annualInsurance",
          "type": "uint32"
        },
        {
          "name": "_status",
          "type": "int256"
        },
        {
          "name": "_monthlyPi",
          "type": "uint32"
        },
        {
          "name": "_monthlyTax",
          "type": "uint32"
        },
        {
          "name": "_monthlyInsurance",
          "type": "uint32"
        }
      ],
      "payable": false,
      "stateMutability": "view",
      "type": "function"
    },
    {
      "constant": false,
      "inputs": [
        {
          "name": "_status",
          "type": "int256"
        }
      ],
      "name": "approveRejectLoan",
      "outputs": [],
      "payable": false,
      "stateMutability": "nonpayable",
      "type": "function"
    }
  ],
  "bytecode": "0x6060604052341561000f57600080fd5b336000806101000a81548173ffffffffffffffffffffffffffffffffffffffff021916908373ffffffffffffffffffffffffffffffffffffffff16021790555060006001600701819055506305f5e100601060003373ffffffffffffffffffffffffffffffffffffffff1673ffffffffffffffffffffffffffffffffffffffff16815260200190815260200160002081905550610d5f806100b16000396000f300606060405260043610610083576000357c0100000000000000000000000000000000000000000000000000000000900463ffffffff16806327e235e31461008857806347e7ef24146100d55780635cc8e54e1461012b5780639384070814610140578063a3f14e9614610163578063f14b7e0c14610246578063f8b2cb4f14610351575b600080fd5b341561009357600080fd5b6100bf600480803573ffffffffffffffffffffffffffffffffffffffff1690602001909190505061039e565b6040518082815260200191505060405180910390f35b34156100e057600080fd5b610115600480803573ffffffffffffffffffffffffffffffffffffffff169060200190919080359060200190919050506103b6565b6040518082815260200191505060405180910390f35b341561013657600080fd5b61013e6104ef565b005b341561014b57600080fd5b61016160048080359060200190919050506107e7565b005b341561016e57600080fd5b61017661096c565b604051808c600019166000191681526020018b63ffffffff1663ffffffff1681526020018a63ffffffff1663ffffffff1681526020018963ffffffff1663ffffffff1681526020018863ffffffff1663ffffffff1681526020018763ffffffff1663ffffffff1681526020018663ffffffff1663ffffffff1681526020018581526020018463ffffffff1663ffffffff1681526020018363ffffffff1663ffffffff1681526020018263ffffffff1663ffffffff1681526020019b50505050505050505050505060405180910390f35b341561025157600080fd5b61034f60048080356000191690602001909190803563ffffffff1690602001909190803563ffffffff1690602001909190803563ffffffff1690602001909190803563ffffffff1690602001909190803563ffffffff1690602001909190803563ffffffff1690602001909190803563ffffffff1690602001909190803563ffffffff1690602001909190803563ffffffff1690602001909190803573ffffffffffffffffffffffffffffffffffffffff1690602001909190803573ffffffffffffffffffffffffffffffffffffffff1690602001909190803573ffffffffffffffffffffffffffffffffffffffff16906020019091905050610a8e565b005b341561035c57600080fd5b610388600480803573ffffffffffffffffffffffffffffffffffffffff16906020019091905050610cea565b6040518082815260200191505060405180910390f35b60106020528060005260406000206000915090505481565b600081601060003373ffffffffffffffffffffffffffffffffffffffff1673ffffffffffffffffffffffffffffffffffffffff168152602001908152602001600020541015610404576104e9565b81601060003373ffffffffffffffffffffffffffffffffffffffff1673ffffffffffffffffffffffffffffffffffffffff1681526020019081526020016000206000828254039250508190555081601060008573ffffffffffffffffffffffffffffffffffffffff1673ffffffffffffffffffffffffffffffffffffffff168152602001908152602001600020600082825401925050819055506104a66104ef565b601060008473ffffffffffffffffffffffffffffffffffffffff1673ffffffffffffffffffffffffffffffffffffffff1681526020019081526020016000205490505b92915050565b600160000160000160009054906101000a900463ffffffff16600c600160030160000160009054906101000a900463ffffffff16020263ffffffff1660106000600160040160000160009054906101000a900473ffffffffffffffffffffffffffffffffffffffff1673ffffffffffffffffffffffffffffffffffffffff1673ffffffffffffffffffffffffffffffffffffffff168152602001908152602001600020541480156106415750600160000160000160009054906101000a900463ffffffff16600c600160030160000160049054906101000a900463ffffffff16020263ffffffff1660106000600160040160010160009054906101000a900473ffffffffffffffffffffffffffffffffffffffff1673ffffffffffffffffffffffffffffffffffffffff1673ffffffffffffffffffffffffffffffffffffffff16815260200190815260200160002054145b80156106ee5750600160000160000160009054906101000a900463ffffffff16600c600160030160000160089054906101000a900463ffffffff16020263ffffffff1660106000600160040160020160009054906101000a900473ffffffffffffffffffffffffffffffffffffffff1673ffffffffffffffffffffffffffffffffffffffff1673ffffffffffffffffffffffffffffffffffffffff16815260200190815260200160002054145b156107e5576000809054906101000a900473ffffffffffffffffffffffffffffffffffffffff166001800160010160046101000a81548173ffffffffffffffffffffffffffffffffffffffff021916908373ffffffffffffffffffffffffffffffffffffffff1602179055507f54baa8a225591732bfb03c9611a550b0662f3668a2e316cf99467ec5efe1ddb06001800160010160049054906101000a900473ffffffffffffffffffffffffffffffffffffffff16604051808273ffffffffffffffffffffffffffffffffffffffff1673ffffffffffffffffffffffffffffffffffffffff16815260200191505060405180910390a15b565b600160040160000160009054906101000a900473ffffffffffffffffffffffffffffffffffffffff1673ffffffffffffffffffffffffffffffffffffffff163373ffffffffffffffffffffffffffffffffffffffff1614151561084957600080fd5b80600160070181905550600281141561092d57336001800160010160046101000a81548173ffffffffffffffffffffffffffffffffffffffff021916908373ffffffffffffffffffffffffffffffffffffffff1602179055507ff5b202ad34aad00c0fabc445b20216181da94cc429e2e8f1204a7abdabea00916001800160010160049054906101000a900473ffffffffffffffffffffffffffffffffffffffff16604051808273ffffffffffffffffffffffffffffffffffffffff1673ffffffffffffffffffffffffffffffffffffffff16815260200191505060405180910390a15b7f9199c2204168edea815389607e935fbabac15bd002ff8a7db78fe8056075afb16001600701546040518082815260200191505060405180910390a150565b600080600080600080600080600080600060018001600001549a506001800160010160009054906101000a900463ffffffff169950600160000160000160009054906101000a900463ffffffff169850600160000160000160049054906101000a900463ffffffff169750600160000160000160089054906101000a900463ffffffff1696506001600001600001600c9054906101000a900463ffffffff169550600160000160000160109054906101000a900463ffffffff169450600160030160000160009054906101000a900463ffffffff169250600160030160000160049054906101000a900463ffffffff169150600160030160000160089054906101000a900463ffffffff1690506001600701549350909192939495969798999a565b8c6001800160000181600019169055508b6001800160010160006101000a81548163ffffffff021916908363ffffffff1602179055508a600160000160000160006101000a81548163ffffffff021916908363ffffffff16021790555089600160000160000160046101000a81548163ffffffff021916908363ffffffff16021790555088600160000160000160086101000a81548163ffffffff021916908363ffffffff160217905550876001600001600001600c6101000a81548163ffffffff021916908363ffffffff16021790555086600160000160000160106101000a81548163ffffffff021916908363ffffffff16021790555085600160030160000160006101000a81548163ffffffff021916908363ffffffff16021790555084600160030160000160046101000a81548163ffffffff021916908363ffffffff16021790555083600160030160000160086101000a81548163ffffffff021916908363ffffffff16021790555082600160040160000160006101000a81548173ffffffffffffffffffffffffffffffffffffffff021916908373ffffffffffffffffffffffffffffffffffffffff16021790555081600160040160010160006101000a81548173ffffffffffffffffffffffffffffffffffffffff021916908373ffffffffffffffffffffffffffffffffffffffff16021790555080600160040160020160006101000a81548173ffffffffffffffffffffffffffffffffffffffff021916908373ffffffffffffffffffffffffffffffffffffffff1602179055506001806007018190555050505050505050505050505050565b6000601060008373ffffffffffffffffffffffffffffffffffffffff1673ffffffffffffffffffffffffffffffffffffffff1681526020019081526020016000205490509190505600a165627a7a72305820b501d5de347dc8fa34b0ec0c520cbcb7c17be3f299eeed7931ba93318d1c8b630029",
  "source": "pragma solidity ^0.4.17;\n\ncontract Mortgage{\n\n    /* This is the constructor which will deploy the contract on the blockchain.\n    We will initialize with the loan status as 'Initiated' and for test purposes\n    we will initialize the loan applicant's balance to 1000000. Note since solidity\n    does not support float or double at this point, we will store the actual value\n    multipled by 100 in the contract, and will be divide the value retrieved from\n    the contract by 100, when we have to represent the balance in the UI\n    */\n    function Mortgage()\n    {\n        loanApplicant = msg.sender;\n        loan.status = STATUS_INITIATED;\n        balances[msg.sender] = 100000000;\n    }\n\n    /* address of the loan applicant */\n    address loanApplicant;\n\n    // Events - publicize actions to external listeners\n    event LienReleased(address _owner);\n    event LienTrasferred (address _owner);\n    event LoanStatus (int _status);\n\n    int constant STATUS_INITIATED = 0;\n    int constant STATUS_SUBMITTED = 1;\n    int constant STATUS_APPROVED  = 2;\n    int constant STATUS_REJECTED  = 3;\n\n\n    /* struct datatype to store the property details */\n    struct Property {\n      bytes32  addressOfProperty;\n      uint32 purchasePrice;\n      address owner;\n    }\n\n    /* struct datatype to store the loan terms */\n    struct LoanTerms{\n      uint32 term;\n      uint32 interest;\n      uint32 loanAmount;\n      uint32 annualTax;\n      uint32 annualInsurance;\n    }\n\n    /* struct datatype to store the monthly payment structure */\n    struct MonthlyPayment{\n        uint32 pi;\n        uint32 tax;\n        uint32 insurance;\n    }\n\n    /* struct datatype to store the details of the loan contract */\n    struct Loan {\n      LoanTerms loanTerms;\n      Property property;\n      MonthlyPayment monthlyPayment;\n      ActorAccounts actorAccounts;\n      int   status; // values: SUBMITTED, APPROVED, REJECTED\n    }\n\n    struct ActorAccounts {\n      address mortgageHolder;\n      address insurer;\n      address irs;\n    }\n\n    Loan loan;\n    LoanTerms loanTerms;\n    Property property;\n    MonthlyPayment monthlyPayment;\n    ActorAccounts actorAccounts;\n\n   /* mapping is equivalent to an associate array or hash\n   Maps addresses of the actors in the mortgage contract with their balances\n   */\n   mapping (address => uint256) public balances;\n\n   /* This means that if the mortgage holder calls this function, the\n    function is executed and otherwise, an exception is thrown */\n    modifier bankOnly {\n      if(msg.sender != loan.actorAccounts.mortgageHolder) {\n         throw;\n      }\n      _;\n   }\n\n   /* deposit into actor accounts and will return the balance of the user\n    after the deposit is made */\n   function deposit(address receiver, uint amount) returns(uint256) {\n        if (balances[msg.sender] < amount) return;\n        balances[msg.sender] -= amount;\n        balances[receiver] += amount;\n        checkMortgagePayoff();\n        return balances[receiver];\n    }\n\n    /* 'constant' prevents function from editing state variables; */\n    function getBalance(address receiver) constant returns(uint256){\n        return balances[receiver];\n    }\n\n    /* check if mortgage payment if complete, if complete, then release the property\n        lien to the homeowner */\n    function checkMortgagePayoff(){\n        if(balances[loan.actorAccounts.mortgageHolder]\n                ==loan.monthlyPayment.pi*12*loan.loanTerms.term &&\n            balances[loan.actorAccounts.insurer]\n                ==loan.monthlyPayment.tax*12*loan.loanTerms.term &&\n            balances[loan.actorAccounts.irs]\n                ==loan.monthlyPayment.insurance*12*loan.loanTerms.term\n        ){\n            loan.property.owner = loanApplicant;\n             LienReleased(loan.property.owner);\n        }\n    }\n\n\n    /* Add loan details into the contract */\n    function submitLoan(\n            bytes32 _addressOfProperty,\n            uint32 _purchasePrice,\n            uint32 _term,\n            uint32 _interest,\n            uint32 _loanAmount,\n            uint32 _annualTax,\n            uint32 _annualInsurance,\n            uint32 _monthlyPi,\n            uint32 _monthlyTax,\n            uint32 _monthlyInsurance,\n            address _mortgageHolder,\n            address _insurer,\n            address _irs\n    ){\n        loan.property.addressOfProperty = _addressOfProperty;\n        loan.property.purchasePrice = _purchasePrice;\n        loan.loanTerms.term=_term;\n        loan.loanTerms.interest=_interest;\n        loan.loanTerms.loanAmount=_loanAmount;\n        loan.loanTerms.annualTax=_annualTax;\n        loan.loanTerms.annualInsurance=_annualInsurance;\n        loan.monthlyPayment.pi=_monthlyPi;\n        loan.monthlyPayment.tax=_monthlyTax;\n        loan.monthlyPayment.insurance=_monthlyInsurance;\n        loan.actorAccounts.mortgageHolder = _mortgageHolder;\n        loan.actorAccounts.insurer = _insurer;\n        loan.actorAccounts.irs = _irs;\n        loan.status = STATUS_SUBMITTED;\n    }\n\n    /* Gets loan details from the contract */\n    function getLoanData() constant returns (\n            bytes32 _addressOfProperty,\n            uint32 _purchasePrice,\n            uint32 _term,\n            uint32 _interest,\n            uint32 _loanAmount,\n            uint32 _annualTax,\n            uint32 _annualInsurance,\n            int _status,\n            uint32 _monthlyPi,\n            uint32 _monthlyTax,\n            uint32 _monthlyInsurance)\n    {\n        _addressOfProperty = loan.property.addressOfProperty;\n        _purchasePrice=loan.property.purchasePrice;\n        _term=loan.loanTerms.term;\n        _interest=loan.loanTerms.interest;\n        _loanAmount=loan.loanTerms.loanAmount;\n        _annualTax=loan.loanTerms.annualTax;\n        _annualInsurance=loan.loanTerms.annualInsurance;\n        _monthlyPi=loan.monthlyPayment.pi;\n        _monthlyTax=loan.monthlyPayment.tax;\n        _monthlyInsurance=loan.monthlyPayment.insurance;\n        _status = loan.status;\n    }\n\n    /* Approve or reject loan */\n    function approveRejectLoan(int _status) bankOnly {\n        //if(msg.sender == loanApplicant) throw;\n        loan.status = _status ;\n        /* if status is approved, transfer the lien of the property\n        to the mortgage holder */\n        if(_status == STATUS_APPROVED)\n        {\n            loan.property.owner  = msg.sender;\n            LienTrasferred(loan.property.owner);\n        }\n        LoanStatus(loan.status);\n    }\n}\n",
  "sourcePath": "/Users/swapnasangayya/Desktop/file/therapist referral/contracts/Mortgage.sol",
  "compiler": {
    "name": "solc",
    "version": "0.4.19+commit.c4cbbb05.Emscripten.clang"
  },
  "schemaVersion": "2.0.0",
  "updatedAt": "2018-04-18T19:11:51.340Z"
}